:102B08001243DEE4F5B19003C5E0B412083049057C
:102B1800C2AF124720305418304915C2549003CC24
:102B2800E054EFF07C037DCC7F04123E5A12F4008F
:102B3800305705C257123AE9303D05C23D124136B9
:102B4800305505C2551240A6303305C2331212C59E
:102B580030390EC23912477E121C5712002E122D20
:102B680003305605C256122826304705C24712269A
:102B780073300708303E05C23E123B93304405C20D
:102B88004412453A303B1DC23B12398212000612EC
:102B980022911202031239E01246E330070312278A
:0B2BA80053123264124300022B0B2278
:0D01F0009000B8E0B4AA03D22722C2272253
:10249500C23BC244C246C25DC247C233C254C249EE
:1024A500C255C245C252C253C256E4F512C237C222
:1024B50030C248C24EC243C24A9002EFF09002E2D7
:1024C500F0900498F0C25CC235C2579002EEF090CD
:1024D500037CF0C23D9003DDF090038C1208FA00F6
:1024E500000000E4781AF6F524F525F522F5239089
:1024F5000382F09002D0F09002D1F09002D2F090D9
:1025050002D3F09002D8F09002D9F09002DAF09060
:1025150002DBF09002DCF09002DDF09002DEF0903C
:1025250002DFF09003C1F0900381F0C241C24BC2BB
:1025350032C2317818F6781776017819F69003E6E5
:10254500F07E037F3C7B40FD1244DEC249E49003EC
:1025550094F090039DF0A3F09003DDF0C245C234E2
:102565009003837450F07E027FF57B28E4FD1244CE
:10257500DE90031F1208FA00000000900323740A7E
:0E258500F0A374ABF0A3740AF0A374ABF022C1
:101675007B007A02E4FDFCFFFE1232EE404F7B0058
:101685007A02E4FDFCFF7E021232EE4008E4F5B179
:101695001246AE80F875A7019001FE74019364A50A
:1016A5007004E493645A60209002EF7455F0E47876
:1016B5001AF6FFFE1230B7400F9002EF7455F0E4B2
:1016C500781AF6FFFE1230B7E4F5A7803875A70142
:1016D5009003FE74019364A57004E493645A602238
:1016E5009002EF7455F0E4781AF6FF7E021230B7D7
:1016F50040109002EF7455F0E4781AF6FF7E02125E
:1017050030B7E4F5A7E49002EFF09003CB746CF0EA
:10171500A37440F0E4A3F0A374F8F0E4A3F0A3F0FD
:10172500A37470F0A37401F0A37403F0A374FFF025
:10173500E4A3F0900000E0F520A3E0F52190031F5D
:101745001208FA0000000090001AE0FCA3E0FDA3D7
:10175500E0FEA3E0FF90032B1208EE900022E0FFCD
:10176500A3E0900335CFF0A3EFF09002F1E524F06C
:10177500A3E525F0A3E522F0A3E523F0900337E5E3
:1017850020F0A3E521F03000199003CCE04408F0E7
:101795009003D1E0FF9000AAE0540FFEEF4E9003B6
:1017A500D1F030015E9003CCE04404F09003D2E028
:1017B500FF9000AAE054F0FEEF4E9003D2F09000A7
:1017C500ABE0FEA3E0FF7C007D32120951E47B25EE
:1017D5007A01F9F81207ED9002041208EE9002045E
:1017E500E0FCA3E0FDA3E0FEA3E0FF78081208B447
:1017F5009003D3EFF0900204E0A3E0A3E0A3E09010
:1018050003D4F0E52154072403F50E64056005E5CE
:101815000EB40A04E4F51622E50E64046005E50E2F
:0A182500B4090475160122751602BD
:01182F002296
:10460A00C2AF75A83075A90875BA2043A801758884
:10461A000175E84075B81075B410E4F5B9F5B5D26E
:02462A00AF22BD
:10473300758640758802758CCD758DFCD28AE4F53B
:024743008622CC
:1045E400E4F590F5EA75E2FF7580F275E9C275E1CC
:1045F4008D75A06075EB4075E3BF75B00275EC0274
:0646040075E4FDD28022E6
:0F47570075B208000000000000000043B2042209
:1033740075B7B0900089E0FEA3E0FFFBAA06E4F96C
:10338400F87FD87EB87D05FC1241C08FBC900089BF
:10339400E0FEA3E0FFFBAA06E4F9F87FD87EB87D3F
:1033A40005FC1241C078081208C78FBDAFBDEFFEFF
:1033B400ADBC7C00E42DFFEC3EFE90008BE0FBFDF9
:1033C4001206AF7D641206C18FBEAFBDEFFEADBC69
:1033D4007C00E42DFFEC3EFEAD031206AF7D6412CB
:1033E40006C1EEF5BFC22CC22D9003857402F0D243
:0233F4002E2287
:10405E001247571245E412473312464E12470C12BE
:10406E001675122495123374124479501B12441291
:10407E00123E0F500E12477E123023120056124679
:10408E000A800812466F800312466F1201F0300745
:08409E00061233F6122166221E
:103DC4001247571245E412444612473312464E1224
:103DD400470C121675122495123374124479501B31
:103DE400124412123E0F500E12477E12302312005C
:103DF4005612460A800812466F800312466F12015B
:0B3E0400F03007061233F61221662290
:1043DE00E4F5A79001FE049364A57004E493645A77
:1043EE00600312F400E5B1543870079003C5E0B4D1
:1043FE00120BE4F5B19003C5F0123DC422E4F5B101
:04440E0012405E22D8
:03005300023C3933
:103C3900C0E0C0F0C083C082C0D075D000C000C051
:103C490001C002C003C004C005C006C007C0867514
:103C5900860030DD0FC2DD203503305C0512475781
:103C6900D257D255D086D007D006D005D004D0037C
:103C7900D002D001D000D0D0D082D083D0F0D0E013
:013C89003208
:03000300023EF0CA
:103EF000C0E0C0F0C083C082C0D075D000C000C098
:103F000001C002C003C004C005C006C007C086755A
:103F10008600203503305C05124757D257D086D033
:103F200007D006D005D004D003D002D001D000D0F5
:0A3F3000D0D082D083D0F0D0E03270
:03002B00022E4F53
:102E4F00C0E0C0F0C083C082C0D075D000C000C049
:102E5F0001C002C003C004C005C006C007C086750C
:102E6F008640758CCD758DFCC28F758600D244302F
:102E7F0052149002E9E004F0C39414400BE4F0A262
:102E8F00B5B392B58002C2B530531490039AE004E3
:102E9F00F0C3940A400BE4F0A2A0B392A08002C248
:102EAF00A00512E512C394284005751200D23B907D
:102EBF000498E004F0C394084007D29C900496E471
:102ECF00F01234F4D086D007D006D005D004D0034A
:102EDF00D002D001D000D0D0D082D083D0F0D0E0BB
:012EEF0032B0
:1019A000201852C3900063E0950C900062E0950B04
:1019B0005026900066E075F014A4FFAEF09002D0BF
:1019C000E004F0C39FEE6480F87480984079D218E8
:1019D000E4F09002D1F0806FD3900065E0950C9018
:1019E0000064E0950B40609002D0E0D39400405733
:1019F000E014F08052D3900065E0950C900064E014
:101A0000950B4029900067E075F014A4FFAEF090AC
:101A100002D1E004F0C39FEE6480F8748098402700
:101A2000C218E49002D0F09002D1F0801AC3900066
:101A300063E0950C900062E0950B500B9002D1E0B2
:101A400094004003E014F020196AD3900075E095EB
:101A50000A900074E095094040900078E075F01419
:101A6000A4FFAEF09002D2E004F0C39FEE6480F8D1
:101A70007480985003021B06D219E4F09002D3F050
:101A8000D230C2439003E5F09003CCE04401F07CF7
:101A9000037DCC7F04123E5A22C3900077E0950A62
:101AA000900076E09509505E9002D2E09400405696
:101AB000E014F022C3900077E0950A900076E0955C
:101AC000095028900079E075F014A4FFAEF0900260
:101AD000D3E004F0C39FEE6480F87480984027C27E
:101AE00019E49002D2F09002D3F022D3900075E076
:101AF000950A900074E09509400C9002D3E0D394CD
:071B0000004003E014F02295
:10097E0020105B90008EE0FEA3E0FF9002EAE0FC08
:10098E00A3E0FDD39FEC9E4029900096E075F028E1
:10099E00A4FFAEF09002D8E004F0C39FEE6480F89E
:1009AE007480985003020A36D210E4F09002D9F007
:1009BE008076900090E0FEA3E0FFC3ED9FEC9E508A
:1009CE00679002D8E09400405FE014F0805A9000E7
:1009DE0090E0FEA3E0FF9002EAE0FCA3E0FDC39FDF
:1009EE00EC9E5029900096E075F028A4FFAEF09092
:1009FE0002D9E004F0C39FEE6480F874809840281A
:100A0E00C210E49002D8F09002D9F0801B90008EB4
:100A1E00E0FEA3E0FFD3ED9FEC9E400C9002D9E0E8
:100A2E00D394004003E014F020125C900092E0FE9C
:100A3E00A3E0FF9002E7E0FCA3E0FDC39FEC9E5015
:100A4E0029900096E075F028A4FFAEF09002DAE04F
:100A5E0004F0C39FEE6480F87480985003020AEE8F
:100A6E00D212E4F09002DBF08076900094E0FEA3C8
:100A7E00E0FFD3ED9FEC9E40679002DAE0D3940046
:100A8E00405EE014F08059900094E0FEA3E0FF90E9
:100A9E0002E7E0FCA3E0FDD39FEC9E402990009678
:100AAE00E075F028A4FFAEF09002DBE004F0C39FE7
:100ABE00EE6480F87480984027C212E49002DAF057
:100ACE009002DBF0801A900092E0FEA3E0FFC3EDEF
:100ADE009FEC9E500B9002DBE094004003E014F07C
:100AEE0020115B900099E0FEA3E0FF9002EAE0FC8B
:100AFE00A3E0FDD39FEC9E4029900096E075F02870
:100B0E00A4FFAEF09002DCE004F0C39FEE6480F828
:100B1E007480985003020BA6D211E4F09002DDF01F
:100B2E00807690009BE0FEA3E0FFC3ED9FEC9E500D
:100B3E00679002DCE09400405FE014F0805A900071
:100B4E009BE0FEA3E0FF9002EAE0FCA3E0FDC39F62
:100B5E00EC9E5029900096E075F028A4FFAEF09020
:100B6E0002DDE004F0C39FEE6480F87480984028A4
:100B7E00C211E49002DCF09002DDF0801B9000992F
:100B8E00E0FEA3E0FFD3ED9FEC9E400C9002DDE073
:100B9E00D394004003E014F020135A90009DE0FE21
:100BAE00A3E0FF9002E7E0FCA3E0FDC39FEC9E50A4
:100BBE0028900096E075F028A4FFAEF09002DEE0DB
:100BCE0004F0C39FEE6480F87480985003020C5BAF
:100BDE00D213E4F09002DFF02290009FE0FEA3E03B
:100BEE00FFD3ED9FEC9E40659002DEE0D394004073
:100BFE005CE014F02290009FE0FEA3E0FF9002E77D
:100C0E00E0FCA3E0FDD39FEC9E4028900096E0759B
:100C1E00F028A4FFAEF09002DFE004F0C39FEE6474
:100C2E0080F87480984026C213E49002DEF09002A1
:100C3E00DFF02290009DE0FEA3E0FFC3ED9FEC9E4F
:0E0C4E00500B9002DFE094004003E014F0220F
:10379C00D228D229201403301602C2282011182056
:1037AC001315201912201B0F20150C302103200F8C
:1037BC0006204E03301609C22953B7FEC2A5800D50
:1037CC00D2A5900385E06402600343B701202B145B
:1037DC0020100F20120C201809201A06302005305A
:1037EC000E02C228201B092015063030052043028A
:0337FC00C22822BE
:104204003028099003CDE04401F080079003CDE00D
:1042140054FEF03029099003CDE04402F080079069
:1042240003CDE054FDF0900382E0FF9003CDE0FE67
:104234006F600E900382EEF07C037DCD7F05123E0D
:024244005A22FC
:10314A002002030231D8201B03301552900072E08E
:10315A0075F028A4FFAEF09003BFE475F0011207E2
:10316A004CFCD3E5F09FEC9E4034C237E49003C296
:10317A00F09003BFF0A3F0C21B301522C2159003D2
:10318A00CCE04480F07C037DCC7F04123E5A90034D
:10319A00CCE0547FF07C037DCC7F04123E5A301A77
:1031AA002D900072E075F028A4FFAEF09003BDE404
:1031BA0075F00112074CFCD3E5F09FEC9E400FE43A
:0F31CA009003BDF0A3F0C21AC248900399F022FF
:1029A80020374B301906D24ED24A801F304A1C209D
:1029B8001919C24AD237E49003C2F09003CCE0441C
:1029C80002F07C037DCC7F04123E5A201B062015A2
:1029D80003022A59D237D24EE49003C2F09003CCB6
:1029E800E04402F07C037DCC7F04123E5A227C0333
:1029F8007DCA7F02123EA59003CAE020E1539000F1
:102A080087E075F005A414FF9003C2E004F0C39FAB
:102A1800403FC237C24EC230C21BE4F09003CCE044
:102A280054FDF07C037DCC7F04123E5A301522C23F
:102A3800159003CCE04480F07C037DCC7F04123EEB
:102A48005A9003CCE0547FF07C037DCC7F04123E87
:022A58005A2200
:1031D9003030427C037DCA7F02123EA59003CAE0CB
:1031E90030E032900087E075F005A4FFAEF090035F
:1031F900E5E004F0C39FEE6480F87480984016C23D
:1032090030D243E4F09003CCE054FEF07C037DCC53
:103219007F04123E5A3048427C037DCA7F02123E27
:10322900A59003CAE020E032900087E075F005A47C
:10323900FFAEF0900399E004F0C39FEE6480F87448
:1032490080984016C248C21AE4F09003CCE054FEBC
:0B325900F07C037DCC7F04123E5A2263
:10229100303103022394202058C3900069E0950C4B
:1022A100900068E0950B503B90006AE0FEA3E0FFD0
:1022B100EE3395E0FDFC90031FE0F8A3E0F9A3E005
:1022C100FAA3E0FBD312088D501990006CE0FF9047
:1022D10002D4E004F0C39F404ED220E4F09002D536
:1022E100F080449002D4E0D39400403BE014F080AD
:1022F10036D3900069E0950A900068E09509401B8B
:1023010090006CE0FF9002D5E004F09F4019C220DC
:10231100E49002D4F09002D5F0800C9002D5E0D385
:1023210094004003E014F0202133D390007BE0952A
:102331000A90007AE09509401790007CE0FF900236
:10234100D6E004F09F404CD221E4F09002D7F02275
:102351009002D6E0D39400403AE014F022C39000FA
:102361007BE0950A90007AE09509501B90007CE093
:10237100FF9002D7E004F0C39F4018C221E490020D
:10238100D6F09002D7F0229002D7E0D39400400318
:04239100E014F02242
:1028EC00201A6690006DE0FCA3E0FDA3E0FEA3E0DF
:1028FC00FF900386E0F8A3E0F9A3E0FAA3E0FBD392
:10290C0012088D4038900071E075F008A4FFAEF00D
:10291C009003EFE004F0D39FEE6480F8748098404D
:10292C0028D21AE4F0D248900399F09003CCE044FA
:10293C0001F07C037DCC7F04123E5A800C9003EF97
:10294C00E0D394004003E014F0201B4F90007DE096
:10295C00FCA3E0FDA3E0FEA3E0FF900386E0F8A358
:10296C00E0F9A3E0FAA3E0FBC312088D502190001C
:10297C0081E075F008A4FFAEF09003F0E004F0D312
:10298C009FEE6480F87480984011E4F0D21B229082
:0C299C0003F0E0D394004003E014F022AC
:1012C5009002051208FA000000007C037DBB7F2A0E
:1012D500123EA59003BBE0FEA3E0FFEE30E4094417
:1012E500E09003BBF0A3EFF09000B2E0FEA3E0FFB7
:1012F500C39003BCE09FFF9003BBE09EFE3395E0E7
:10130500FDFC7B187AFC79FF78FF120762C006C0E6
:10131500079000B0E0FEA3E0FFFBAA06EA3395E0E4
:10132500F9F8D007D0061241C09003861208EE9056
:101335000386E0FCA3E0FDA3E0FEA3E0FF9003E647
:10134500E025E025E0243CF582E43403F58312082A
:10135500EE9003E6E004F0C394104002E4F0E4905C
:101365000204F0900204E0FFC39410503FA3E0F89C
:10137500A3E0F9A3E0FAA3E0FBEF25E025E0243C98
:10138500F582E43403F583E0FCA3E0FDA3E0FEA3CE
:10139500E0FFEB2FFFEA3EFEE93DFDE83CFC900255
:1013A500051208EE900204E004F080B7E47B10FA21
:1013B500F9F8900205E0FCA3E0FDA3E0FEA3E0FF41
:1013C5001241C090038C1208EEC22BC22A9000284D
:1013D500E0FEA3E0FFC3E49FFFE49EFE3395E0FD3E
:1013E500FC90038CE0F8A3E0F9A3E0FAA3E0FBC3CB
:1013F50012088D501ED22B53A8EF90038CE0FCA34E
:10140500E0FDA3E0FEA3E0FF90031F1208EE43A852
:10141500108050900028E0FEA3E0FFEE3395E0FD3C
:10142500FC90038CE0F8A3E0F9A3E0FAA3E0FBD37A
:1014350012088D401ED22A53A8EF90038CE0FCA31E
:10144500E0FDA3E0FEA3E0FF90031F1208EE43A812
:1014550010801053A8EF90031F1208FA0000000037
:1014650043A810302A22205211900384E004F0D3BF
:1014750094084034D252E4F0802E900384E0D39453
:10148500004025E014F0802020520E900384E0D324
:1014950094004014E014F0800F900384E004F0D32E
:0B14A50094084004C252E4F01228EC4E
:0114B0002219
:1039E0009002067403F0900206E0FFD3940B504A55
:1039F0007C027D04123EA5900206E0FF7E007B0162
:103A000024C8F9EE3403FA120696FD900204E0B5DC
:103A1000051374C92FF9EE3403FA120696FF9002CB
:103A200005E06F600C900206E064076004124479C0
:0A3A300022900206E02402F080ACB0
:013A3A002269
:1040A6007C037DC8E4FF123EA59003C9E0FF30E122
:1040B60002D233EF30E002D2399003C8E0FF30E39A
:1040C6000CD2159002F1E524F0A3E525F0EF30E2DD
:1040D6000CD2149002F1E524F0A3E525F09003C973
:0840E600E030E20312447922EC
:103E0F00C25E900204E0FF04F0EFC3943C50397F90
:103E1F00051246CA7C037DC8E4FF123EA59003C974
:103E2F00E030E0DE900204E0FF04F0EFC3943C507A
:103E3F00177F051246CA7C037DC8E4FF123EA5908A
:0A3E4F0003C9E030E1DED25EA25E9E
:013E59002246
:10302300C3900063E0950C900062E0950B5002D2D0
:1030330018D3900075E0950A900074E09509401B41
:10304300D219D230C243E49003E5F09003CCE044BC
:1030530001F07C037DCC7F04123E5A90008EE0FE8B
:10306300A3E0FF9002EAE0FCA3E0FDD39FEC9E40C7
:1030730002D210900092E0FEA3E0FF9002E7E0FA94
:10308300A3E0FBC39FEA9E5002D212900099E0FE98
:10309300A3E0FFD3ED9FEC9E4002D21190009DE090
:1030A300FEA3E0FFC3EB9FEA9E5002D21312379CAC
:0430B300124204229F
:10453A002031031219A012097E12379C12420490EC
:10454A0002F3E522F0A3E523F09002F1E524F0A3BB
:0D455A00E525F012314A1229A81231D922AC
:10466F009003D57433F07C037DD57F0D123E5A90A5
:10467F0003CCE04420F07C037DCC7F04123E5A2211
:103AE900C257205C0330353B124757C235C25CE4EC
:103AF9009002EEF090037CF0F5127F011246CAD2D3
:103B0900CE12460A9003CB746CF07C037DCB7F0305
:103B1900123E5A9003CCE04410F07C037DCC7F0424
:103B2900123E5AE49002EEF090037CF0C234C25C7B
:053B3900900498F02249
:1046AE0053B7FEC2A5C253D280E4F5A8F5A9C2A0A5
:0C46BE00C2A1C2A2C2A3C2A412466F2275
:103924009003CCE054EFF07C037DCC7F04123E5A2C
:103934009003CB7470F07C037DCB7F03123E5AC29C
:10394400A0C2A1C2A2C2A3C2A4C253D28053B7FED2
:10395400302904D2A58002C2A57F011246CAC2CE74
:1039640053B2FB0000000053B2F7C2AFE4F5A875F0
:0E397400A90875BA2043A801D2AF12477222EB
:10326400303408304905C234D23522301614900067
:103274002AE0FF90037CE004F0C39F406CEFF0D29F
:10328400352220455B202A4E202B4B301914900008
:103294002AE0FF90037CE004F0C39F404CEFF0D29F
:1032A4003522E490037CF0A21272107218721A7222
:1032B4001172137219721B72157253401390002A03
:1032C400E0FF9002EEE004F09F401EEFF0D25C229B
:1032D400E49002EEF022E49002EEF090037CF022FF
:0A32E400E49002EEF090037CF0226B
:10430000205C29203526C2AFA255723D7233725609
:104310007247725772547239723B400D9003C5E078
:1043200064126005D2AF124766D2AF223035041254
:0A43300046AE22305C03123924224D
:1034F400E4F5B1203D74750F0F20B105750F0180FF
:1035040006208103750F02E50F651160280515E596
:1035140010C39402404CE51594024015E5109450F4
:103524004008E5114440F50D800385110DD23D801E
:103534003105102222E50F640F6024E4F51505100F
:10354400E510B45009E5114410F50DD23D22E51003
:10355400B46417751050E5114420F50DD23D227561
:0A3564000D0FE4F510F515850F11A9
:01356E00223A
:102BB300C22CC22DC22E900385E0703F04F0D22DAB
:102BC300AFBDEFFEADBC7C00E42DFFEC3EFE9000FC
:102BD3008CE0FBFD1206AF7D641206C18FBEAFBD54
:102BE300EFFEADBC7C00E42DFFEC3EFEAD03120610
:102BF300AF7D641206C1EEF5BF8053900385E0B448
:102C0300010C7402F0D22ED2A553B7FE8040E4909B
:102C13000385F0D22CAFBDEFFEADBC7C00E42DFFED
:102C2300EC3EFE90008BE0FBFD1206AF7D641206C6
:102C3300C18FBEAFBDEFFEADBC7C00E42DFFEC3E0B
:102C4300FEAD031206AF7D641206C1EEF5BF90021E
:092C5300F1E524F0A3E525F022CF
:10413600E50D24FE600F24F1603314601C24117019
:1041460033122BB32220450BD245E49003DDF01247
:10415600202E22E49003DDF022C2AF12466F7F0AC2
:104166001246CA9003C57412F012000022B253A27E
:0541760053B39280220A
:10202E00200C51300B4E900333E0FEA3E0FFD3940F
:10203E003CEE9400400BC2A0C2A1D2A2D2A3D2A465
:10204E0022D3EF9414EE9400400BC2A0C2A1C2A200
:10205E00D2A3D2A422D3EF9400EE9400400BC2A0E0
:10206E00C2A1C2A2C2A3D2A422C2A0C2A1C2A2C2B3
:10207E00A3C2A422300C65200B62900333E0FEA3B2
:10208E00E0FFD3944BEE9400400BC2A0D2A1D2A29B
:10209E00D2A3D2A422D3EF9432EE9400400BC2A06E
:1020AE00C2A1D2A2D2A3D2A422D3EF9419EE94004D
:1020BE00400BC2A0C2A1C2A2D2A3D2A422D3EF943B
:1020CE0000EE9400400BC2A0C2A1C2A2C2A3D2A431
:1020DE0022C2A0C2A1C2A2C2A3C2A422300C7830D6
:1020EE000B75900333E0FEA3E0FFD39450EE940003
:1020FE00400BD2A0D2A1D2A2D2A3D2A422D3EF94CB
:10210E003CEE9400400BC2A0D2A1D2A2D2A3D2A484
:10211E0022D3EF9428EE9400400BC2A0C2A1D2A20B
:10212E00D2A3D2A422D3EF9414EE9400400BC2A0FB
:10213E00C2A1C2A2D2A3D2A422D3EF9400EE9400E5
:10214E00400BC2A0C2A1C2A2C2A3D2A422C2A0C2EC
:08215E00A1C2A2C2A3C2A42287
:100006003045199003DDE004F0C39404400EE4F09B
:0D001600C245C2A0C2A1C2A2C2A3C2A422C0
:103BE700000000300062007400000089008E009918
:103BF70000A2000000AA00AE00FE000000000000C6
:103C0700000000000020005000820094000000A97E
:103C170000AE00B900C2000000CA00CE011E0000BD
:103C270000000000000000000007050A09064953CC
:023C370050003B
:10464E0075C432E4F587759850759DFF759C647539
:10465E009E04759A0A759BFF900496F0900498F04C
:01466E002229
:10456700E4FF74022FF582E43404F583E0FEEF9054
:104577003C2F93FDEE6D6006C29C7599FF220FEFED
:0C458700B409DFD254C249C29C75995A95
:014593002205
:10474500900402E07006C29C75995A22C29C759924
:02475500FF2241
:0835E700900202EEF0A3EFF0E8
:1035EF007B017A047900900402E02403FD12468FD8
:1035FF00900402E02403F582E43404F583E06F7055
:10360F0045FF900402E0FEEFC39E502DE4F5B17428
:10361F00032FF582E43404F583E0FE900202E0FC10
:10362F00A3E0F5828C83EEF0900203E004F07006C5
:10363F00900202E004F00F80C9D25DE49002E2F044
:0B364F00C29C75995A22C29C7599FF1D
:01365A00224D
:1037FF00900402E0D3948C4002E4F0E4FD900402C4
:10380F00E0FCEDC39C501DE4F5B18F828E83E0FB8D
:10381F0074032DF582E43404F583EBF00FBF000140
:10382F000E0D80D97B017A047900EC2403FD12463A
:10383F008F900402E02403F582E43404F583EFF063
:10384F00C29C900496E02400F582E43404F583E0F2
:02385F00F599D9
:013861002244
:10417B007B017A047900900402E02403FD12468F40
:10418B00900402E02403F582E43404F583E0B507E0
:10419B001E900404E0FFB441089003C57412F08034
:1041AB0006EFB40502D234C249C29C75995A22C299
:0541BB009C7599FF2234
:10433A007B017A047900900402E02403FD12468F7F
:10434A00900402E02403F582E43404F583E0B5071F
:10435A0010900403E09002F0F0C249C29C75995A89
:07436A0022C29C7599FF229D
:100EB200900401E024AB700302104924B560602461
:100EC2009FB41800400302104D900ED975F003A490
:100ED200C58325F0C58373020F25020F37020F4920
:100EE200020F5B020F6D020F7F020F91020FA3022E
:100EF2000FB5020FC7020FD9020FE9020FF1020F5D
:100F0200F9021001020FE102100902101102101978
:100F1200021021021029021031021039021041126E
:100F2200474522E51625E024F5F582E43402AF8236
:100F3200FE1237FF22E51625E024F7F582E434029B
:100F4200AF82FE1237FF22E51625E024F9F582E48E
:100F52003402AF82FE1237FF22E51625E024FBF5AC
:100F620082E43402AF82FE1237FF22E51625E02426
:100F7200FDF582E43402AF82FE1237FF22E5162528
:100F8200E024FFF582E43402AF82FE1237FF22E54D
:100F92001625E02401F582E43403AF82FE1237FF06
:100FA20022E51625E02403F582E43403AF82FE1223
:100FB20037FF22E51625E02405F582E43403AF82EB
:100FC200FE1237FF22E51625E02407F582E43403FA
:100FD200AF82FE1237FF227E037F1D1237FF227E71
:100FE200037F1F1237FF227E037F231237FF227EE9
:100FF200037F251237FF227E037F271237FF227ECF
:10100200037F291237FF227E037F2B1237FF227EB6
:10101200037F2F1237FF227E037F331237FF227E98
:10102200037F351237FF227E027FF11237FF227EC5
:10103200027FF31237FF227E037F371237FF227EB1
:10104200037F391237FF2212456722900402E0C360
:1010520094804005D23ED24C22900401E0B4780C38
:101062009002F0E0B40C05D23ED23622900401E0A8
:10107200B478229002F0E025E024E7F582E4343BE4
:10108200F583E493FE740193FF900200EEF0A3EF68
:10109200F01237FF22900401E0B479219002F0E0CF
:1010A20025E0240BF582E4343CF583E493FE7401DD
:0D10B20093FF900200EEF0A3EFF01237FF65
:0110BF00220E
:103F3A007B017A047900900402E02403FD12468F83
:103F4A00900402E02403F582E43404F583E06F7000
:103F5A0022D256900403E0FEA3E0FDEEEDFF9003AB
:103F6A00E7EEF0A3EFF09003C1E04401F0C29C75C4
:093F7A00995A22C29C7599FF229C
:102A5A007B017A047900900402E02403FD12468F78
:102A6A00900402E02403F582E43404F583E06F6005
:102A7A0003022B02D256900404E0FFE4FCFDFE7828
:102A8A00101208DBC004C005C006C007900403E0AA
:102A9A00FFE4FCFDFE78181208DBD003D002D00157
:102AAA00D000EF4BFFEE4AFEED49FDEC48FCC004B6
:102ABA00C005C006C007900405E0FFE4FCFDFE78EF
:102ACA00081208DBD003D002D001D000EF4BFBEE96
:102ADA004AFAED49F9EC48F8A3E0FFE4EB4FFFEAC4
:102AEA00FEE9FDE8FC9003951208EE9003C1E0446C
:0E2AFA0010F0C29C75995A22C29C7599FF2259
:1043A8007B017A047900900402E02403FD12468F11
:1043B800900402E02403F582E43404F583E0B507B1
:1043C8000FD2569003C1E04420F0C29C75995A223E
:0643D800C29C7599FF2252
:103F83007B017A047900900402E02403FD12468F3A
:103F9300900402E02403F582E43404F583E06F70B7
:103FA30022D256900403E0FEA3E0FDEEEDFF900362
:103FB300C3EEF0A3EFF09003C1E04404F0C29C759C
:093FC300995A22C29C7599FF2253
:103FCC007B017A047900900402E02403FD12468FF1
:103FDC00900402E02403F582E43404F583E06F706E
:103FEC0022D256900403E0FEA3E0FDEEEDFF900319
:103FFC00C6EEF0A3EFF09003C1E04408F0C29C754C
:09400C00995A22C29C7599FF2209
:104015007B017A047900900402E02403FD12468FA7
:10402500900402E02403F582E43404F583E06F7024
:1040350027FDD25674032DF582E43404F583E0FEA2
:1040450074E92DF582E43403F583EEF09003C1E0C5
:084055004480F00DEDB406DA21
:01405D002240
:102C5C00900401E012092B2C88182C8C772CA87866
:102C6C002CCA792C94A02C9CA12CA0A22C90A32C27
:102C7C0098A42CA4AF2CECB000002D0212417B22A6
:102C8C0012433A22122A5A22123F3A221243A82203
:102C9C00123F8322123FCC22124015229002F0E008
:102CAC0025E024E7F582E4343BF583E493FE7401DC
:102CBC0093FF900200EEF0A3EFF01235E7229002A2
:102CCC00F0E025E0240BF582E4343CF583E493FE3C
:102CDC00740193FF900200EEF0A3EFF01235E7229F
:102CEC00900403E0B4550AD23ED23AC29C75995A6C
:062CFC0022C29C7599FF45
:012D020022AE
:03002300021DA318
:101DA300C0E0C0F0C083C082C0D075D000C000C006
:101DB30001C002C003C004C005C006C007C08675C9
:101DC3008600209803021E76900496E02400F58294
:101DD300E43404F583E599F0900496E004F0E0C35D
:101DE30094504002E4F0900496E0B4011B90040088
:101DF300E0FF54FEB59A0CEF20E004D2388009D2FC
:101E03003F8005900496E4F030383E900496E0B4A9
:101E1300030D900401E064556005120EB2802A9010
:101E23000401E0B45523900403E02403FFE433FEEC
:101E3300900496E0D39FEE6480F8748098400AE49F
:101E4300F090049704F0124567303F23900402E0BA
:101E53002403FFE433FE900496E0D39FEE6480F8FE
:101E6300748098400A122C5CC23F900496E4F0C23E
:101E730098C249309949900496E0FF601690040295
:101E8300E02403FDE433FCC3EF9DEC6480F874802D
:101E9300984015D29C900496E4F0C238900400F068
:101EA300A3F0A3F0A3F08013900496E004F0E024E1
:101EB30000F582E43404F583E0F599C299D24990A0
:101EC30002EEE4F090037CF0900498F0D086D00703
:101ED300D006D005D004D003D002D001D000D0D09A
:091EE300D082D083D0F0D0E032AF
:1046CA00E4FEEEC39F5011E4FDFC0DBD00010CBCDD
:0846DA0006F8BD86F50E80EA2A
:0146E20022B5
:104446007F08AE07A806E4F60FEFD3949F40F3E487
:10445600781BF608F6781BE6FE08E6FFD394FFEE17
:10446600940A500E8F828E83E4F006E618700106D9
:0244760080E3E1
:014478002221
:1039820090002FE0645A7052900061E0645A704ACD
:10399200900073E0645A7042900088E0645A703A72
:1039A20090008DE0645A7032900098E0645A702A58
:1039B2009000A1E0B45A239000A9E0B45A1C9000F0
:1039C200ADE0B45A159000B9E0B45A0E9001FEE091
:0E39D200645A7004A3E064A560031216752207
:0844DE00900216EEF0A3EFF0CE
:1044E600E4FFEFC39B501E900216E0F8A3E0F582AE
:1044F6008883EDF0900217E004F07006900216E053
:0545060004F00F80DD50
:01450B00228D
:08437100900226EEF0A3EFF02C
:10437900E4FFEFC39B5027900226E0F8A3E0F58203
:104389008883E08D828C83F00DBD00010C9002279B
:0E439900E004F07006900226E004F00F80D4DD
:0143A70022F3
:0C476600758E5543870100000000002202
:0C477200758E55438702000000000022F5
:10472000E4F5A8F5A9F588F5E8F59DF59CF598124E
:0347300000002264
:0501FE005AA502F40007
:030000000246F8BD
:1046F80075819F75B208000000000000000043B2F9
:0447080004022B0874
:0B3E5A00900209EFF0A3ECF0A3EDF0E4
:103E6500C25FE4A3F090020CE0FF04F0EFC39405F9
:103E7500502B900209E0FD7C00A3E0FFA3E0900237
:103E850038CFF0A3EFF07B017F36121B07925F302E
:0F3E95005F04800980CF7F011246CA80C8A25FF8
:013EA40022FB
:0B3EA500900209EFF0A3ECF0A3EDF099
:103EB000C260E4A3F090020CE0FF04F0EFC39405AD
:103EC000502B900209E0FD7C00A3E0FFA3E09002EC
:103ED00037CFF0A3EFF07B027F361214B19260303F
:0F3EE0006004800980CF7F011246CA80C8A260AB
:013EEF0022B0
:104412007C037DC8E4FF123EA59003C8E07004A3AC
:10442200E060209003CCE04480F07C037DCC7F04EC
:10443200123E5A9003CCE0547FF07C037DCC7F0483
:04444200123E5A22AA
:10447900D25EE4900207F0900207E0FE2403FFEE0B
:104489007C0024CBF9EC3403FCAD01123E5A400404
:10449900C25E800C900207E004F0E0C3940B40D7A1
:0244A900A25E11
:0144AB0022EE
:101C5700303103021DA2303203021DA2200303020A
:101C67001DA2E490039DF0A3F0C3900063E0950CE0
:101C7700900062E0950B500330181ED3900065E08A
:101C8700950C900064E0950B400320180C20100978
:101C9700201206201103301308C23CE4900394F08D
:101CA70022C39000A3E0950C9000A2E0950B40039F
:101CB700021D9BC3E50C950AFFE50B9509FED39022
:101CC70000A5E09F9000A4E09E4003021D9B9000AA
:101CD700A6E0FEA3E0FFEE3395E0FDFC90031FE0D6
:101CE700F8A3E0F9A3E0FAA3E0FBC312088D5003C1
:101CF700021D9B203C06900394E004F09000A8E0AE
:101D070075F00AA4FF900394E0C39FE5F06480F8A0
:101D17007480985003021DA2AD16E516250EFFE448
:101D270033FEEDC39FEE6480F87480985063ED2511
:101D3700E024F5F582E43402F583E0FEA3E0C395E1
:101D47000AFFEE9509FED39000A5E09F9000A4E05E
:101D57009E503BED25E024F5F582E43402F583E05F
:101D6700FEA3E0FF9000A2E0FAA3E0FBC3EF9BEE27
:101D77009A401B74017E00A805088005C333CE3343
:101D8700CED8F9FF90039DE04EF0A3E04FF00D8011
:0B1D970089D23C22C23CE4900394F08F
:011DA200221E
:1042C500900206EEF0A3EFF0900206E0FEA3E07880
:1042D50005CEC313CE13D8F99003CFF07C037DCF61
:1042E5007F07123E5A900206E0A3E09003D0F07CCF
:0B42F500037DD07F08123E5AD2412208
:10462C0030411EC241E49003CFF07C037DCF7F0765
:10463C00123E5AE49003D0F07C037DD07F08123EEA
:02464C005A22F0
:1044AC00C25E30052A201627304B24C39003F2E05D
:1044BC0094B49003F1E09400500FD25E781906E6A4
:1044CC00C3940A400AD2168006C24BE47819F6A2AD
:0144DC005E81
:0144DD0022BC
:102D0300C3E50C950AFFE50B9509FEC3EF94B0EEFE
:102D13009404500AE50C9464E50B94055002D24BDD
:102D23007817E624FE605014605214605E14606CE1
:102D330024047072203203303C6C30421590039DA2
:102D4300E05455FFA3E05455900204CFF0A3EFF0F5
:102D5300801390039DE054AAFFA3E054AA900204B9
:102D6300CFF0A3EFF0900204E0FEA3E0FF1242C510
:102D730078177602D2312278177603221244AC40B8
:102D83002512462C78177604B242221244AC400531
:102D9300781776052278177601B2422278177601E2
:062DA300C232C23CC23145
:012DA9002207
:10002E0030051F20161C781806E6C3942D40137653
:10003E002D20310EE4F6D23290039D7403F0A3749A
:03004E00FFF0229E
:102EF000E4900205F0A3F0C25F900204E516F0E54D
:102F000016250EFFE433FE900204E0C39FEE6480BA
:102F1000F87480985041E0FF25E0249FF582E43466
:102F200003AD82FCEF25E0240EFF123EA5925F90D8
:102F30000204E025E0249FF582E43403F583E0FEFB
:102F4000A3E0FF900206E02FF0900205E03EF09033
:102F50000204E004F080A8305F30900205E0FEA398
:102F6000E0FF7C0E7DD8120951C006C0079003E730
:102F7000E0FEA3E0FFFBAA06E4F9F8D007D00612B2
:0C2F800007ED9000AEEEF0A3EFF0A25FB2
:012F8C002222
:102F8D00C25F7C027D047F2A123EA5925F7F5012A4
:102F9D0046CA7C027D067F2A123EA5925F305F7382
:102FAD00900206E0FEA3E0FF900205E02FFF9002E5
:102FBD0004E03EFE7C007D021207169003BBEEF08E
:102FCD00A3EFF0EE30E40A9003BBE044E0F0A3E0A1
:102FDD00F09000B2E0FEA3E0FFC39003BCE09FFFC2
:102FED009003BBE09EFE3395E0FDFC7B187AFC79E7
:102FFD00FF78FF120762900395E0F8A3E0F9A3E0D4
:10300D00FAA3E0FB1241C0EF4E60089000B0EEF065
:05301D00A3EFF0A25F2B
:01302200228B
:10356F00C25F7C027D047F2A123EA5925F7F5012BC
:10357F0046CA7C027D067F2A123EA5925F305F55B8
:10358F00900204E0FEA3E0FFEE30E40944E0900275
:10359F0004F0A3EFF0900206E0FEA3E0FFEE30E4AC
:1035AF000944E0900206F0A3EFF0900206E0FEA3BC
:1035BF00E0FF900205E02FFF900204E03EFE7C004A
:1035CF007D021207169003BBEEF0A3EFF09000B24E
:0735DF00EEF0A3EFF0A25F84
:0135E60022C2
:103A3B00C25F7C037DB37F22123EA5925F305F4451
:103A4B009003B3E0FEA3E0FF120C5CC39003C4E051
:103A5B009FFF9003C3E09EFE9000B4E0FCA3E0FD4B
:103A6B00C3EF9DFDEE9CFCC3ED9496EC64809480BB
:103A7B005012ED946AEC6480947F40089000B4EE91
:063A8B00F0A3EFF0A25FC2
:013A91002212
:103A9200C25F7C037DB57F24123EA5925F305F44F6
:103AA2009003B5E0FEA3E0FF120C5CC39003C7E0F5
:103AB2009FFF9003C6E09EFE9000B6E0FCA3E0FDEF
:103AC200C3EF9DFDEE9CFCC3ED9496EC6480948064
:103AD2005012ED946AEC6480947F40089000B6EE38
:063AE200F0A3EFF0A25F6B
:013AE80022BB
:10428700C25F9003EEE09003E4F09003EDE090034B
:10429700E3F09003ECE09003E2F09003EBE090038F
:1042A700E0F09003EAE09003DFF09003E9E0900389
:0D42B700DEF01238C5925FD23ED250A25FF9
:0142C40022D7
:10282600D25E9003C1E030E010122EF04004C25E8A
:102836008007900381E04403F09003C1E030E2108A
:10284600123A3B4004C25E8007900381E04404F0E4
:102856009003C1E030E310123A924004C25E800752
:10286600900381E04408F09003C1E030E410122F99
:102876008D4004C25E8007900381E04410F090030F
:10288600C1E030E51012356F4004C25E8007900348
:1028960081E04420F09003C1E030E7101242874007
:1028A60004C25E8007900381E04480F030070B90FD
:1028B6000381E0B4BF1A80098016900381E0B43F1B
:1028C6000FE4900381F0D2279000B874AAF0D247A3
:1028D600E49003C1F0D25D305E06C29C75995A221F
:0528E600C29C7599FF82
:0128EB0022CA
:101EEC0080B678FA71C46B0C64C760C25B2755EB83
:101EFC0051074C7449A2458441AA3E0D3AAB384A6D
:101F0C00354132682FBB2D382B7A293627152514ED
:101F1C00233121C320101E761CF41B881A79192F2B
:101F2C0017F816D215BC14DD13E212F41213113E7D
:101F3C0010970FD50F1E0E700DCC0D3E0CA90C1B5F
:101F4C000B940B140AA80A3309C5095B08F7089D02
:101F5C00084207EB0798074A070406BC06770636C3
:101F6C0005F705BD0584054D051904E804B9048B76
:101F7C0004600436040E03E803C303A0037E035E6F
:101F8C00033F0321030402E902CF02B6029E02863C
:101F9C000270025B02470232021F020D01FC01EBD0
:101FAC0001DA01CB01BC01AE01A0019201850179DE
:101FBC00016D01620156014B01410137012E0124D3
:101FCC00011B0113010B010300FB00F300EC00E506
:101FDC0000DF00D800D200CC00C600C000BA00B5AB
:101FEC0000B000AB00A700A2009D009900950091E5
:101FFC00008D008900850082007F007B00780075D1
:10200C000072006F006C0069006600640061005F84
:10201C00005C005A0058005600530051004F004E0F
:02202C00004C66
:040C5C008F828E8372
:100C60007E037FE8AD82AC83120951C006C007AE97
:100C700083AF82C3E49FFF74109EFEAB07FAE4F9D2
:100C8000F8D007D0061207ED9002071208EEE47FB5
:100C90000AFEFDFC900207E0F8A3E0F9A3E0FAA346
:100CA000E0FBD31208A34022900207E0FCA3E0FD82
:100CB000A3E0FEA3E0940AFFEE9400FEED9400FD95
:100CC000EC9400FC9002071208EE901EECE493FEF8
:100CD000740193FFE4FCFD900207E0F8A3E0F9A3A0
:100CE000E0FAA3E0FBC31208A3400D9002057408CC
:100CF000F0A374B7F0020EA990202CE493FE7401C7
:100D000093FFE4FCFD900207E0F8A3E0F9A3E0FA0A
:100D1000A3E0FBD31208A3500D900205740EF0A3BC
:100D200074F7F0020EA9900383E0900204F075F0CE
:100D300002A424ECF582E5F0341EF583E493FE74FE
:100D40000193FFE4FCFD900207E0F8A3E0F9A3E0C3
:100D5000FAA3E0FBD31208A3404B900383E0149066
:100D60000204F0900204E0FFC394005003020DF36C
:100D700075F002EFA424ECF582E5F0341EF583E46F
:100D800093FE740193FFE4FCFD900207E0F8A3E0FA
:100D9000F9A3E0FAA3E0FBD31208A34056900204A3
:100DA000E014F080BE900383E004900204F090020F
:100DB00004E0FFC394A0503575F002EFA424ECF5D5
:100DC00082E5F0341EF583E493FE740193FFE4FCA6
:100DD000FD900207E0F8A3E0F9A3E0FAA3E0FBD35B
:100DE0001208A35008900204E004F080C1900204AD
:100DF000E014F0900204E0900383F075F002A42464
:100E0000ECF582E5F0341EF583E493FE740193FF64
:100E1000E4900207E0F8A3E0F9A3E0FAA3E0FBC343
:100E2000EF9BFFEE9AFEE499FDE498FCE47B0AFA5E
:100E3000F9F8120762C004C005C006C0079002049A
:100E4000E0FF75F002A424EEF582E5F0341EF58390
:100E5000E493FC740193FD75F002EFA424ECF58299
:100E6000E5F0341EF583C37401939DFFE4939CFE6B
:100E7000AB07FAE4F9F8D007D006D005D004120782
:100E8000EDAB07AA06900383E024CEFFE434FFFE17
:100E90007C007D0A1206AFEF2BFFEE3ACF24ABCFDA
:100EA000340A900205F0A3EFF0900205E0FEA3E003
:010EB000FF42
:010EB100221E
:102593009003B3E0FEA3E0FF120C5C9000B5E02FC4
:1025A300FF9000B4E03EFE53A8EF900323F0A3EFA7
:1025B300F043A8109003B7E0FEA3E0FF7C067D572D
:1025C300120951E47BE87A03F9F81207EDEF244787
:1025D300FFE43EFE53A8EF900327F0A3EFF043A8D8
:1025E30010E50ED39405402D9003B9E0FEA3E0FF60
:1025F3007C067D57120951E47BE87A03F9F8120748
:10260300EDEF2447FFE43EFE53A8EF900329F0A328
:10261300EFF043A810900323E0FCA3E0FD9002E752
:10262300ECF0A3EDF09002EAECF0A3EDF0300D3FF7
:102633009003B5E0FEA3E0FF120C5C9000B7E02F1F
:10264300FF9000B6E03EFE53A8EF900325F0A3EF02
:10265300F043A810D39002E8E09F9002E7E09E4089
:0F26630006EEF0A3EFF0229002EAEEF0A3EFF004
:012672002245
:101830009002051208FA000000009002091208FA4E
:1018400000000000E49002E0F0A3F09003F17417B0
:10185000F0A37470F0900204E516F0E50E2516FF73
:10186000E433FE900204E0FDC39FEE6480F87480D0
:1018700098400302196FED25E0249FF582E43403BC
:10188000F583E0FEA3E0FF7C0E7DD8120951C0066F
:10189000C0079000AEE0FEA3E0FFFBAA06E4F9F863
:1018A000D007D0061207ED9002091208EE9002E070
:1018B000E0FEA3E0FFE4FCFD900209E0F8A3E0F9FC
:1018C000A3E0FAA3E0FBD31208A34013900209E0BF
:1018D000A3E0A3E0FFA3E09002E0CFF0A3EFF0903D
:1018E00003F1E0FEA3E0FFE4FCFD900209E0F8A3B1
:1018F000E0F9A3E0FAA3E0FBC31208A3501390029F
:1019000009E0A3E0A3E0FFA3E09003F1CFF0A3EF91
:10191000F020315253A8EF900209E0A3E0A3E0FECB
:10192000A3E0FF900204E025E024F5F582E4340210
:10193000F583EEF0A3EFF043A810900205E0FCA3BE
:10194000E0FDA3E0FEA3E0FFA3E0F8A3E0F9A3E03D
:10195000FAA3E0FBEF2BFFEE3AFEED39FDEC38FC8D
:101960009002051208EE900204E004F002185B20D9
:10197000312D9002E0E0F50BA3E0F50C9003F1E0CF
:10198000F509A3E0F50A53A8EF900205E0A3E0A350
:0F199000E0FFA3E090031DCFF0A3EFF043A810FA
:01199F002225
:10373400D25E900204E516F0E50E2516FFE433FE92
:10374400900204E0C39FEE6480F87480985026E0F1
:10375400FF25E0249FF582E43403AD82FCEF25E0ED
:10376400240EFF123EA54005C25EA25E2290020412
:10377400E004F080C37C037DB37F22123EA54005A4
:10378400C25EA25E227C037DB57F24123EA5400565
:07379400C25EA25E22A25EEC
:01379B00220B
:0C477E0012373450061225931218302216
:10020300A215722A721A721B5004C222805D202228
:100213005A900026E0FEA3E0FFFBAA06E490032B1E
:10022300E0FCA3E0FDA3E0FEA3E0C39BFFEE9AFE88
:10023300ED9400FDEC9400FCA3E0F8A3E0F9A3E047
:10024300FAA3E0FBD31208A34021900024E0FEA30D
:10025300E0FFD39002E8E09F9002E7E09E400CD2DB
:10026300229003901208FA00000000202A030203E0
:100273001390038CE0A3E0A3E0FEA3E0FF90039CB4
:10028300E02FF090039BE03EF0C390039CE09410BA
:1002930090039BE0940E5003020460A3E024F0F06B
:1002A30090039BE034F1F090032BE0FCA3E0FDA36B
:1002B300E0FEA3E0FFA3E0F8A3E0F9A3E0FAA3E0E4
:1002C300FBC31208A3502753A8EF90032FE0FCA30E
:1002D300E0FDA3E0FEA3E02401FFE43EFEE43DFDD8
:1002E300E43CFC90032F1208EE43A810809B53A814
:1002F300EF90032BE0FCA3E0FDA3E0FEA3E0FFA34C
:100303001208EE43A810E490039BF0A3F002028CC2
:10031300202B0302046090038CE0FCA3E0FDA3E028
:10032300FEA3E0FF12087F9002EDE02FF09002ECB5
:10033300E03EF0C3A3E094109002ECE0940E50036F
:10034300020460C39002EDE094109002ECE0940E7E
:1003530050030203ECA3E024F0F09002ECE034F14C
:10036300F09002E3E0FCA3E0FDA3E0FEA3E02401A0
:10037300FFE43EFEE43DFDE43CFC9002E31208EEA4
:10038300E4FFFEFDFC90032FE0F8A3E0F9A3E0FAFD
:10039300A3E0FBD31208A3402853A8EF90032FE058
:1003A300FCA3E0FDA3E0FEA3E024FFFFEE34FFFE89
:1003B300ED34FFFDEC34FFFC90032F1208EE43A84D
:1003C30010202203020346900390E0FCA3E0FDA368
:1003D300E0FEA3E02401FFE43EFEE43DFDE43CFC3B
:1003E3009003901208EE02034690001EE0FCA3E087
:1003F300FDA3E0FEA3E0FF9002E3E0F8A3E0F9A38E
:10040300E0FAA3E0FBC31208A340529002E3E0FC2E
:10041300A3E0FDA3E0FEA3E0FF90001EE0F8A3E04D
:10042300F9A3E0FAA3E0FBEF9BFFEE9AFEED99FD43
:10043300EC98FC9002E31208EE900023E004F070C5
:1004430006900022E004F0900022E0FFA3E0900376
:1004530035CFF0A3EFF0D25DE49002E2F090032BEE
:10046300E0FCA3E0FDA3E0FEA3E0FFA3E0F8A3E02C
:10047300F9A3E0FAA3E0FBC31208A3503853A8EF93
:10048300E47F64FEFDFC90032FE0F8A3E0F9A3E012
:10049300FAA3E0FB12076290032BE0F8A3E0F9A3B1
:1004A300E0FAA3E0FB1207ED900333EEF0A3EFF0C5
:1004B30043A810800F53A8EF900333E4F0A37464B0
:1004C300F043A8102021030206372022030205EF80
:1004D300E47B0AFAF9F890032BE0FCA3E0FDA3E028
:1004E300FEA3E0FF1207EDE47B03FAF9F8120762BB
:1004F300900204EEF0A3EFF0E4FCFD90032BE0F890
:10050300A3E0F9A3E0FAA3E02FFFEA3EFEED39FDF5
:10051300EC38FC900390E0F8A3E0F9A3E0FAA3E041
:10052300FBD31208A3402B900204E0FEA3E0FFE4F8
:10053300FCFD90032BE0F8A3E0F9A3E0FAA3E02F7E
:10054300FFEA3EFEED39FDEC38FC9003901208EE15
:100553008063900204E0FEA3E0FFE4FCFD900390BF
:10056300E0F8A3E0F9A3E0FAA3E02FFFEA3EFEEDF3
:1005730039FDEC38FC90032BE0F8A3E0F9A3E0FA93
:10058300A3E0FBD31208A3402C900204E0FEA3E0F7
:10059300FFFBAA06E490032BE0FCA3E0FDA3E0FE2F
:1005A300A3E09BFFEE9AFEED9400FDEC9400FC901B
:1005B30003901208EE53A8EF900390E0FCA3E0FD34
:1005C300A3E0FEA3E0FF90032B1208EE43A81090D4
:1005D3000390E0FCA3E0FDA3E0FEA3E0FF90001A7C
:1005E3001208EEC222D25DE49002E2F053A8EFD3E8
:1005F300900334E0940A900333E094004006E4F05F
:10060300A3740AF0900333E0FEA3E0FFE4FCFD9043
:10061300032BE0F8A3E0F9A3E0FAA3E0FB120762DF
:10062300E47B64FAF9F81207ED90032F1208EE4306
:10063300A810802430202153A8EF90032BE0FCA3C3
:10064300E0FDA3E0FEA3E0FFA31208EE900333E472
:10065300F0A37464F043A81053A8EF301913900368
:100663002F1208FA00000000E4900333F0A3F08097
:100673001E30181B90032BE0FCA3E0FDA3E0FEA3B8
:10068300E0FFA31208EE900333E4F0A37464F04395
:02069300A810AD
:010695002242
:10005600900333E4F0A37464F0E4900204F0900299
:1000660004E0FFC3940A40030201C4EF25E0240222
:10007600F582E43400F583E0FCA3E0FDAF0E7E00DC
:100086001206AF90031DE0FAA3E0FBC39FEA9E4071
:10009600030201BB900204E06003020126AF0EFEDC
:1000A60090007AE0FCA3E0FD1206AFC3EB9FEA9E48
:1000B600500AE4900333F0A3F00201C4AF0E7E00B1
:1000C60090007AE0FCA3E0FD1206AFC390031EE0A9
:1000D6009FFF90031DE09EFE7C007D0A120951C021
:1000E60004C005C006C00790007AE0FEA3E0FFC387
:1000F600900003E09FFF900002E09EFEAD0E7C00A4
:100106001206AFAB07AA06E4F9F8D007D006D00569
:10011600D0041207ED900333EEF0A3EFF00201C412
:10012600900204E025E02400F582E43400F583E043
:10013600FCA3E0FDAF0E7E001206AFC390031EE0E7
:100146009FFF90031DE09EFE7C007D0A120951C0B0
:1001560004C005C006C007900204E0FF25E02400A5
:10016600F582E43400F583E0FCA3E0FDEF25E0240E
:1001760002F582E43400F583E0FEA3E0C39DFFEEC2
:100186009CFEAD0E7C001206AFAB07AA06E4F9F89A
:10019600D007D006D005D0041207EDAD07AC069007
:1001A6000204E075F00AA42DFEE5F03C900333F05E
:1001B600A3CEF08009900204E004F00200649003EC
:1001C60033E0FEA3E0FFE4FCFD90001AE0F8A3E0B4
:1001D600F9A3E0FAA3E0FB120762E47B64FAF9F8FC
:0901E6001207ED90032F1208EE40
:0101EF0022ED
:10450C00AB07AA06C2AF75A701EAF5F7AF038FFB9D
:10451C00AF058FFC75F26E75F30575F40A75F50928
:0E452C0075F6060000000000E4F5A7D2AF22ED
:1045940075A701E4F5B1FDFCE4F5B1EF2DFBEE3CAC
:1045A4008B82F583E4936002C3220DBD00010CE409
:0845B400B505E5ECB402E1D30A
:0145BC0022DC
:0834760090020AEEF0A3EFF052
:10347E00E4F52DF52EC261F5B1FDFCE4F5B1900237
:10348E000AE0FAA3E0FB2DF5FBEB2DEA3CF5F7E5A0
:10349E002E2DF582E52D3CF583E0F5FC781AE670CD
:1034AE004275F26E20AF3C75F305E5A7603575F4F5
:1034BE000A9002EFE06455702A75F50990020BE050
:1034CE002D90020AE03CABF7B50318E475F6060042
:1034DE0000000000D2610DBD00010CE4B5059CECAE
:0534EE00B40298A26188
:0134F30022B6
:0830B700900208EEF0A3EFF017
:1030BF00C260E4F5B1C2AF75A701900208E0FF7ED0
:1030CF0000F5F7781AE6705F75F2E620AF5975F3E1
:1030DF0005E5A7605275F40A9002EFE0645570475A
:1030EF0075F509ADF7EF6D7001EE703B75F60600E3
:1030FF0000000000900208E0FEA3E0FF124594508C
:10310F00269001FE745AF0A374A5F0900208E0FE19
:10311F00A3E0FF123476500F900208E0FEA3E0FF09
:10312F001238625002D260E4F5F2F5F3F5F4F5F5DA
:0A313F00F5F6F5A7F5F7D2AFA26090
:013149002263
:0838620090020AEEF0A3EFF062
:10386A00E4F52DF52E75A701F5B1A3F0A3F09002AA
:10387A000CE0FEA3E0FFC3EE9402503DE4F5B190E4
:10388A00020BE02FFF90020AE03E8F82F583E49359
:10389A00FF90020CE0FCA3E0252EF582E52D3CF515
:1038AA0083E0FEEF6E6002C32290020DE004F07026
:0A38BA000690020CE004F080B5D384
:0138C40022E1
:10267300C25EC25F9002EF7455F0E50ED39405403D
:10268300087513277514108006751313751488C302
:1026930090031EE0951490031DE095135003022749
:1026A300339001FEE0645A7004A3E064A560030262
:1026B3002733FFFE1230B7404CE4FFFE1230B74021
:1026C30019D25E74FF9001FEF0A3F0FD7FFE7E0140
:1026D30012450C7FFF12450C805A7F007E02123098
:1026E300B740517F007E021230B74048D25F74FF7B
:1026F3009001FEF0A3F0FD7FFE7E0312450C7FFFE9
:1027030012450C802F7F007E021230B740267F00D7
:102713007E021230B7401DD25F74FF9001FEF0A31A
:10272300F0FD7FFE7E0312450C7FFF12450C8004F3
:10273300D25ED25FE49002EFF0304013C240A25F5A
:0F274300825E5006C29C7599FF22C29C75995AFE
:012752002264
:0E32EE00900208EEF0A3EFF0A3EAF0A3EBF0DD
:1032FC00C25EAE04AF058E2D8F2EC2AF75A70190A6
:10330C000209E024FEFF900208E03401C313FEEF33
:10331C001325E0FFEE338F82F58374019364A5705F
:10332C0004E493645A703BFFFEC390020BE09F9041
:10333C00020AE09E402AE4F5B1900209E02FFD90CC
:10334C000208E03E8D82F583E493852E82852D83E1
:10335C00F0052EE52E7002052D0FBF00010E80C961
:07336C00D25EE4F5A7A25EAA
:013373002237
:1046E300305D119002E2E004F0C394024006E4F06E
:0546F300C25DD2472268
:1040EE0090022EEEF0A3EFF0A3EDF0A3EAF0A3EB17
:0140FE00F0D1
:1040FF00A37405F090022EE0FCA3E0FDA3E0FBA368
:10410F00E0FFA3E0900238CFF0A3EFF07FA0121BE7
:10411F00074013900233E0600D7F011246CA9002F0
:06412F0033E014F080CE25
:014135002267
:103C8A00900216EEF0A3EFF0A3EDF0A3EAF0A3EB97
:013C9A00F039
:103C9B00C25EA37405F0205E3290021BE0602C9094
:103CAB000216E0FCA3E0FDA3E0FBA3E0FFA3E09082
:103CBB000237CFF0A3EFF07FA01214B1925E7F0119
:0D3CCB001246CA90021BE014F080CBA25EEE
:013CD80022C9
:10365B007E027F077B08E4FD1244DEE4900205F056
:10366B00A3F0900205E0FEA3E0FFE4FCFD7BFF7AF4
:10367B0007F9F8D312088D4032E4F5B1900205E05A
:10368B00FEA3E07805C333CE33CED8F9241FFFE475
:10369B003EFE7A027B077D011240EE900206E004AB
:1036AB00F07006900205E004F080B77A027B077D8C
:0F36BB00087FE07EFF1240EEE490037FF0A3F063
:0136CA0022DD
:1033F600200703C24F22204F76D24F7A027B057DEB
:10340600087FE07EFF123C8A900206E0FF900205EC
:10341600E02F900207F090020AE0FF900209E02FE9
:1034260090020BF0900208E0FF900207E0B5071645
:10343600900205E0FEA3E07C002400FFEC3E900332
:103446007FF0A3EFF02290020CE0FF90020BE0B5B4
:103456000716900209E0FEA3E07C002400FFEC3E84
:0F34660090037FF0A3EFF022E490037FF0A3F038
:013475002234
:103B3E00E490020EF0122DAA7E037FDE7C027D053C
:103B4E007B031243717E037FE27C027D087B0312AE
:103B5E004371E4FF74052FF582E43402F583E0FE31
:103B6E0090020EE02EF00FEFB406E990020EE090F8
:103B7E00020BF0A3745AF07A027B057D087FF07E6B
:043B8E00FF1240EEF4
:013B92002210
:1042460090037FE0FCA3E0FDEC900226F0AF05A30F
:10425600EFF0900226E02F900229F0900226E090DF
:10426600022AF0900227E090022BF0900229E090BB
:10427600022DF07A027B267D087FE07EFF1240EE5B
:014286002215
:0510C000900205EFF0B5
:1010C5006410701C7E037FD67C027D067B03124371
:1010D500717E037FDA7C027D097B03124371801DDB
:1010E500122DAA7E037FDE7C027D067B03124371EF
:1010F5007E037FE27C027D097B031243719002F13E
:10110500E0FCA3E0FDEC90020CF0A3EDF09002F3FF
:10111500E0FCA3E0FDEC90020EF0A3EDF090032BB4
:10112500E0FCA3E0FDA3E0FEA3E0FF78181208B4FD
:10113500900210EFF090032BE0FCA3E0FDA3E0FE8E
:10114500A3E0FF78101208B4900211EFF090032B82
:10115500E0FCA3E0FDA3E0FEA3E0FF78081208B4DD
:10116500900212EFF090032BE0A3E0A3E0A3E09040
:101175000213F090032FE0FCA3E0FDA3E0FEA3E043
:10118500FF78181208B4900214EFF090032FE0FCDA
:10119500A3E0FDA3E0FEA3E0FF78101208B49002DF
:1011A50015EFF090032FE0FCA3E0FDA3E0FEA3E024
:1011B500FF78081208B4900216EFF090032FE0A311
:1011C500E0A3E0A3E0900217F090031DE0FCA3E08C
:1011D500FDAE047818CEC313CE13D8F9900218F0DB
:1011E500EDAE047810CEC313CE13D8F9900219F0E2
:1011F50090031DE0FCA3E0FDEC90021AF0A3EDF0D6
:1012050090031FE0FCA3E0FDA3E0FEA3E0FF781838
:101215001208C790021CEFF090031FE0FCA3E0FD4D
:10122500A3E0FEA3E0FF78101208C790021DEFF0BF
:1012350090031FE0FCA3E0FDA3E0FEA3E0FF780818
:101245001208C790021EEFF090031FE0A3E0A3E091
:10125500A3E090021FF0900323E0FCA3E0FDEC90D7
:101265000220F0A3EDF0900335E0FCA3E0FDEC9047
:101275000222F0A3EDF0900205E0900224F0A374A1
:101285005AF090037FE0FEA3E0FF7A027B067D2003
:101295001240EE900380E02420F090037FE03400BC
:1012A500F0E0FEA3E0FFE4FCFD7BE07AFFF9F8D374
:0F12B50012088D5007E490037FF0A3F012424619
:0112C4002207
:1036CB009002F0E02480FFE434FFEF7D00C454F05F
:1036DB00FC900401E02488FFE434FFFEEF7807C37D
:1036EB0033CE33CED8F92DFFEE3CFE900402E0FD35
:1036FB007A047B03123C8A7B017A047900900402E2
:10370B00E02403FD12468F900402E02403F582E4CB
:10371B003404F583EFF0C29C900496E02400F5820C
:08372B00E43404F583E0F59994
:013733002273
:103CD900122DAA7E037FDE7C047D037B03124371D0
:103CE9007E037FE27C047D067B031243717B017AAC
:103CF900047900900402E02403FD12468F90040227
:103D0900E02403F582E43404F583EFF0C29C9004C7
:0F3D190096E02400F582E43404F583E0F5992266
:103B93001233F6122166303A05C23A12365B304CC4
:103BA30005C24C1236CB303605C236123CD93050E2
:103BB30005C250123B3E304D0CC24D9002047410AE
:103BC300F0FF1210C030590CC2599002047401F076
:103BD300FF1210C030580CC2589002047402F0FF58
:033BE3001210C0FD
:013BE60022BC
:102753001233F612216690002EE0FF90033BE00453
:10276300F0C39F4005E4F0122DAA90037DE475F0B9
:102773000112074CFEC3E5F09410EE940E400BE4F7
:1027830090037DF0A3F0D23ED250202A1ED25B30BC
:102793005A06C25AD23ED25930210B305108C25187
:1027A300D23ED2588005202102D251305B6D900079
:1027B3002CE0FEA3E0FFEE3395E0FDFC90031FE069
:1027C300F8A3E0F9A3E0FAA3E0FBC312088D404BA2
:1027D30090038AE07002A3E07010122DAA7E037F9B
:1027E300DE7C037DD67B0712437190002BE0FF7ED6
:1027F300007C007D3C1206AF90038AE475F0011261
:10280300074CFCD3E5F09FEC9E4017E490038AF05D
:10281300A3F0D25AC25BD23ED24D22E490038AF097
:03282300A3F022FD
:103D2800900231EAF0A3EBF090022FEFF0A3EDF050
:013D3800F991
:103D3900D261EFFD7C00AB01A3E0FFA3E090023864
:103D4900CFF0A3EFF07FDE121B07401E90022FE099
:103D5900FD7C00A3E0FBA3E0FFA3E0900238CFF0D5
:0C3D6900A3EFF07FDE121B079261A26145
:013D7500222B
:103D7600900231EAF0A3EBF090022FEFF0A3EDF002
:013D8600F943
:103D8700D25FEFFD7C00AB01A3E0FFA3E090023719
:103D9700CFF0A3EFF07FDE1214B1401E90022FE0A8
:103DA700FD7C00A3E0FBA3E0FFA3E0900237CFF088
:0C3DB700A3EFF07FDE1214B1925FA25F58
:013DC30022DD
:102DAA00C25E7A027B267D09E4FF123D7640030269
:102DBA002E4C90022DE020E03E900226E09003DEA9
:102DCA00F0900227E09003DFF0900228E0541F9071
:102DDA0003E0F0900229E09003E2F090022AE090EA
:102DEA0003E3F090022BE09003E4F090022CE090D1
:102DFA0003E1F0D25E804B9003DEE0900226F09071
:102E0A0003DFE0900227F09003E0E044809002287C
:102E1A00F09003E2E0900229F09003E3E090022AA6
:102E2A00F09003E4E090022BF09003E1E090022C92
:102E3A00F0A37490F0E4A3F07A027B267D09FF12D6
:042E4A003D28A25E1F
:012E4E002261
:1038C500C2609002047490F07A027B047D017F0748
:1038D500123D2892609003DEE0900205F09003DF30
:1038E500E0900206F09003E0E04480900207F0903B
:1038F50003E2E0900208F09003E3E0900209F09003
:1039050003E4E090020AF09003E1E090020BF07A04
:0E391500027B057D07E4FF123D289260A26050
:013923002281
:10216600E490020CF0200703C24F22304F030222F4
:1021760090D24F7E027F057B07E4FD1244DE7E028D
:102186007F0E7B08E4FD1244DE7A027B0E7D087F1B
:10219600F07EFF123C8AE4FF740E2FF582E43402CF
:1021A600F583E0FE90020CE02EF00FEFB406E99006
:1021B600020CE0FF900214E0B50706A3E0645A6043
:1021C6001DE4900205F0A3F0A37412F0A37405F0C9
:1021D600A37415F0A37403F0A37419F0803490026D
:1021E6000EE0900205F090020FE0900206F09002D9
:1021F60010E0900207F0A37405F0900211E090023F
:1022060009F0900212E090020AF0900213E09002A8
:102216000BF07E027F057C037DDE7B071243719007
:1022260003DEE0900205F09003DFE0900206F090F6
:1022360003E0E04480900207F09003E2E090020899
:10224600F09003E3E0900209F09003E4E090020AC4
:10225600F09003E1E090020BF090020D7490F07A9A
:10226600027B0D7D017F07123D2890020D7401F05F
:102276007A027B0DFD7F06123D28122DAA500B7A9D
:0A228600027B057D07E4FF123D28EE
:01229000222B
:1023950000070E091C1B1215383F363124232A2D40
:1023A50070777E796C6B6265484F464154535A5D30
:1023B500E0E7EEE9FCFBF2F5D8DFD6D1C4C3CACD20
:1023C50090979E998C8B8285A8AFA6A1B4B3BABD10
:1023D500C7C0C9CEDBDCD5D2FFF8F1F6E3E4EDEA00
:1023E500B7B0B9BEABACA5A28F88818693949D9AF0
:1023F5002720292E3B3C35321F18111603040D0AE0
:102405005750595E4B4C45426F68616673747D7ACF
:10241500898E878095929B9CB1B6BFB8ADAAA3A4BF
:10242500F9FEF7F0E5E2EBECC1C6CFC8DDDAD3D4AF
:10243500696E676075727B7C51565F584D4A43449F
:10244500191E171005020B0C21262F283D3A33348F
:102455004E49404752555C5B7671787F6A6D64637F
:102465003E39303722252C2B0601080F1A1D14136F
:10247500AEA9A0A7B2B5BCBB9691989F8A8D84835F
:10248500DED9D0D7C2C5CCCBE6E1E8EFFAFDF4F34F
:1045BD00D2637D807CBBE5C820E310E4F5B1ED4C02
:1045CD006009ED1D70011C80ED80EBE5D154F86F95
:0645DD006002C263A2634C
:0145E30022B5
:10468F00E4FFEDD394004016E4F5B11206966F9057
:0E469F00239593FF740129F9E43AFA1D80E493
:0146AD0022EA
:101B0700900237EBF0900234EFF0A3ECF0A3EDF086
:101B1700D26290023E74BBF0A37480F090023AEF59
:101B2700F0A3EDF0900238E0FEA3E0F5828E83E0AB
:101B370090023CF07B017A02793A7D0312468F903E
:101B4700023DEFF0900237E0D394005003021C549B
:101B570043E6C043D10143C80175C8607F081245F9
:101B6700BD400C7F101245BD4005C262021C2D907E
:101B77000234E0F58D75C8407F181245BD4005C297
:101B870062021C2D900234E0B4A013A3E0F58D751A
:101B9700C8407F281245BD4005C262021C2D900235
:101BA70035E0A3E0F58D75C8407F281245BD400498
:101BB700C2628072900234E064367030900238E07E
:101BC700FEA3E0F5828E83E0F58D75C8407F28126D
:101BD70045BD4004C262804E90023DE0F58D75C858
:101BE700407F281245BD403EC262803AE4FE900223
:101BF70037E0FFEEC39F502EE4F5B1A3E0FCA3E06E
:101C0700F5828C83E0F58D75C8407F281245BD406D
:101C170004C2628011900239E004F0700690023825
:101C2700E004F00E80C875C850E5C830E41FE4F53D
:101C3700B190023EE07002A3E0601290023FE02400
:0F1C4700FFF090023EE034FFF080DE80DCA2620E
:011C5600226B
:0D14B100AA07900234ECF0A3EDF0A3EBF0DD
:1014BE00D261E4900268F0A374BBF0A37480F09044
:1014CE00023AEAF0A3EDF0EA4401A3F0EBD3940064
:1014DE00500302167243E6C043D10143C80175C8DA
:1014EE00607F081245BD400C7F101245BD4005C2FD
:1014FE006102164B8A8D75C8407F181245BD400596
:10150E00C26102164BEAB4A015900234E0F58D7557
:10151E00C8407F281245BD4005C26102164B90029D
:10152E0034E0A3E0F58D75C8407F281245BD400517
:10153E00C26102164B75C8607F081245BD400C7F14
:10154E00101245BD4005C26102164BEA4401F58DED
:10155E0075C8407F401245BD4005C26102164BE47E
:10156E00900239F0900236E0FF900239E0FEC39F00
:10157E00505DE4F5B1EA64366035EF14B5060A75D0
:10158E00C8407F581245BD800875C8447F5012452B
:10159E00BD900237E0FEA3E0F5828E83E58DF090DC
:1015AE000238E004F07006900237E004F0801875FF
:1015BE00C8447F501245BD900239E0243DF582E4C7
:1015CE003402F583E58DF0900239E004F08095EA5F
:1015DE006436706975C8407F581245BD900268E543
:1015EE008DF07B017A02793A900236E02403FD12E7
:1015FE00468F900268E0B50742E4900239F09002FF
:10160E0036E0FF900239E0FEC39F5031743D2EF557
:10161E0082E43402F583E0FF900237E0FCA3E0F5AC
:10162E00828C83EFF0900238E004F070069002375F
:10163E00E004F0900239E004F080C3C26175C85036
:10164E00E5C830E41FE4F5B1900269E07002A3E052
:10165E00601290026AE024FFF0900269E034FFF01D
:06166E0080DE80DCA261B9
:011674002253
:10470C0075C632E4F5E6758A02F5D175C84075892F
:04471C00FFF58D22F6
:10F40000C2AF75819F75B2080000000000000000C7
:10F4100043B204E4900496F0900400F0A3F0A3F04B
:10F42000A3F0900497F07580F275E9C275E18175DB
:10F430009850759DFF759C64759E04759A0A759B1E
:10F44000FFE4F5B120980302F4D4900496E0240080
:10F45000F582E43404F583E599F0900496E004F035
:10F46000900400E0659A600BE4900496F09004012B
:10F47000F0805F900401E0FF64557040900403E069
:10F480002403FDE433FC900496E0D39DEC6480F803
:10F49000748098403DE4F090049704F0900408E0F4
:10F4A000B4490BA3E0B45306A3E064506007C29CC8
:10F4B0007599FF801DC29C75995A8016900496E03C
:10F4C000FED39402400CEE9F400812F509E490042C
:10F4D00096F0C29820990302F441900496E004F05B
:10F4E000900497E0FF900496E0FEC39F4006D29CF4
:10F4F000E4F0800FC29C74002EF582E43404F5839E
:09F50000E0F599C29902F44122E0
:10F50900900402E0F4600302F7BA900404E064494D
:10F51900600302F7BAA3E06453600302F7BAA3E0F9
:10F529006450600302F7BA900403E0FD64FE70754D
:10F53900900407E0F5A7753402753500A3E0FF25AF
:10F54900E0F5F775F2E675F30575F40A75F50975D1
:10F55900F60600000000752F5AE4F530F531C3E5D1
:10F56900319535E5309534502AE4F5B1900408E039
:10F579007F0025E0FEEF2531FFE5303E8F82F583E0
:10F58900E4936005752FFF800A0531E531700205A6
:10F599003080CBE4900496F090049704F0C29C85E7
:10F5A9002F9902F7BAED64FD600302F63CF52EF5DA
:10F5B9002DE4F5B1740A252DF582E43404F583E0D0
:10F5C900252EF52E052DE52DB440E6740A252DF5D9
:10F5D90082E43404F583E0652E6005752FFF8041D0
:10F5E900900407E0F5A7A3E0F5F7A3E0F5FBE4F540
:10F5F9002DE4F5B1740A252DF582E43404F583E090
:10F60900F5FC75F26E75F30575F40A75F50975F66D
:10F61900060000000005FB052DE52DB440D3752F2C
:10F629005AE4900496F090049704F0C29C852F99AF
:10F6390002F7BA900403E0FD64FB600302F6D0F51B
:10F6490036F537900407E0F5A7A3E0FFF5F7EFFEDD
:10F65900A3E0FBEEF532EBF533A3E0FEA3E0FBEE0E
:10F66900F534EBF535E4F530F531C3E5319535E59C
:10F679003095345025E4F5B1E5332531FFE53235D0
:10F68900308F82F583E4932537F537E43536F5363F
:10F699000531E5317002053080D0E4900496F09090
:10F6A900049704F090040CE0FEA3E0FBEEEB653751
:10F6B9007003EE65366008C29C7599FF02F7BAC2FD
:10F6C9009C75995A02F7BAED64FA707B900407E0C9
:10F6D900F5A7A3E0FEA3E0FDEEF532EDF533E4F581
:10F6E9002EF52DE4F5B1FEE533252DFFEE35328FEC
:10F6F90082F583E493FF7400252DF582E43404F543
:10F7090083EFF07400252DF582E43404F583E025B8
:10F719002EF52E052DE52DB440C97400252DF58251
:10F72900E43404F583E52EF0E4900496F090049710
:10F739007441F0C29C900496E02400F582E43404FC
:10F74900F583E0F599806A900403E0FF64F9704855
:10F7590090040004F0A3747AF0A37401F0A3740870
:10F76900F0900401E0FE900400E02EFE900402E017
:10F779002E2408F52E900404F0E4900496F09004E9
:10F78900977405F0C29C900496E02400F582E43455
:10F7990004F583E0F5998019EFB4F815900407E0B2
:10F7A900B47F0EE4F5A7F5F79003C57412F01200C3
:06F7B90000E4F5A7F5F7DE
:01F7BF002227
:10069600BB010689828A83E0225002E722BBFE0262
:0906A600E32289828A83E4932295
:1006AF00EF8DF0A4A8F0CF8CF0A428CE8DF0A42E5F
:0206BF00FE2219
:1006C100BC000BBE0029EF8DF084FFADF022E4CC1D
:1006D100F875F008EF2FFFEE33FEEC33FCEE9DECE6
:1006E100984005FCEE9DFE0FD5F0E9E4CEFD22ED2C
:1006F100F8F5F0EE8420D21CFEADF075F008EF2F76
:10070100FFED33FD4007985006D5F0F222C398FD66
:050711000FD5F0EA2203
:10071600C2D5EC30E709B2D5E4C39DFDE49CFCEEFE
:1007260030E715B2D5E4C39FFFE49EFE1206C1C3AF
:10073600E49DFDE49CFC80031206C130D507C3E4AA
:060746009FFFE49EFE226D
:10074C00C5F0F8A3E028F0C5F0F8E5821582700238
:06075C001583E038F022D5
:10076200E88FF0A4CC8BF0A42CFCE98EF0A42CFC36
:100772008AF0EDA42CFCEA8EF0A4CDA8F08BF0A4B4
:100782002DCC3825F0FDE98FF0A42CCD35F0FCEB13
:100792008EF0A4FEA9F0EB8FF0A4CFC5F02ECD39D8
:0F07A200FEE43CFCEAA42DCE35F0FDE43CFC2245
:1007B10075F008758200EF2FFFEE33FECD33CDCCFF
:1007C10033CCC58233C5829BED9AEC99E582984082
:1007D1000CF582EE9BFEED9AFDEC99FC0FD5F0D65F
:1007E100E4CEFBE4CDFAE4CCF9A88222B800C1B989
:1007F1000059BA002DEC8BF084CFCECDFCE5F0CBC7
:10080100F97818EF2FFFEE33FEED33FDEC33FCEBFF
:1008110033FB10D703994004EB99FB0FD8E5E4F9BA
:10082100FA227818EF2FFFEE33FEED33FDEC33FCA7
:10083100C933C910D7059BE99A4007EC9BFCE99A9B
:10084100F90FD8E0E4C9FAE4CCFB2275F010EF2FE0
:10085100FFEE33FEED33FDCC33CCC833C810D707E0
:100861009BEC9AE899400AED9BFDEC9AFCE899F81B
:0E0871000FD5F0DAE4CDFBE4CCFAE4C8F922AE
:1041C000C2D5E830E70FB2D5E4C39BFBE49AFAE42A
:1041D00099F9E498F8EC30E717B2D51241F61207D6
:1041E000EDE4C39BFBE49AFAE499F9E498F88003C0
:1041F0001207ED30D50DE4C39FFFE49EFEE49DFD64
:04420000E49CFC221C
:0E087F00C3E49FFFE49EFEE49DFDE49CFC228A
:10088D00EB9FF5F0EA9E42F0E99D42F0EC6480C8E2
:06089D0064809845F02282
:1008A300EB9FF5F0EA9E42F0E99D42F0E89C45F0AB
:0108B3002222
:1008B400E8600FECC313FCED13FDEE13FEEF13FF22
:0308C400D8F12246
:1008C700E86010ECA2E713FCED13FDEE13FEEF1347
:0408D700FFD8F02234
:1008DB00E8600FEFC333FFEE33FEED33FDEC33FC7B
:0308EB00D8F1221F
:0C08EE00ECF0A3EDF0A3EEF0A3EFF0227D
:1008FA00A8828583F0D083D08212091112091112BD
:10090A000911120911E473E493A3C583C5F0C583E1
:10091A00C8C582C8F0A3C583C5F0C583C8C582C847
:01092A0022AA
:10092B00D083D082F8E4937012740193700DA3A35B
:10093B0093F8740193F5828883E47374029368606F
:06094B00EFA3A3A380DF6F
:10095100EC8EF0A4CCC5F0CCCDF8EFA4CEC5F02D33
:10096100FDE43CFCE8A42EC8C5F03DFDE43CFCEFF1
:0D097100A4FFE5F028FEE43DFDE43CFC227F
:00000001FF
